{
  "_format": "hh-sol-artifact-1",
  "contractName": "WavePortal",
  "sourceName": "contracts/WavePortal.sol",
  "abi": [
    {
      "inputs": [],
      "stateMutability": "nonpayable",
      "type": "constructor"
    },
    {
      "anonymous": false,
      "inputs": [
        {
          "indexed": true,
          "internalType": "address",
          "name": "from",
          "type": "address"
        },
        {
          "indexed": false,
          "internalType": "string",
          "name": "message",
          "type": "string"
        },
        {
          "indexed": false,
          "internalType": "uint256",
          "name": "timestamp",
          "type": "uint256"
        }
      ],
      "name": "newWave",
      "type": "event"
    },
    {
      "inputs": [],
      "name": "getAllWaves",
      "outputs": [
        {
          "components": [
            {
              "internalType": "address",
              "name": "waver",
              "type": "address"
            },
            {
              "internalType": "string",
              "name": "message",
              "type": "string"
            },
            {
              "internalType": "uint256",
              "name": "timestamp",
              "type": "uint256"
            }
          ],
          "internalType": "struct WavePortal.Wave[]",
          "name": "",
          "type": "tuple[]"
        }
      ],
      "stateMutability": "view",
      "type": "function"
    },
    {
      "inputs": [],
      "name": "getTotalWaves",
      "outputs": [
        {
          "internalType": "uint256",
          "name": "",
          "type": "uint256"
        }
      ],
      "stateMutability": "view",
      "type": "function"
    },
    {
      "inputs": [
        {
          "internalType": "string",
          "name": "_message",
          "type": "string"
        }
      ],
      "name": "wave",
      "outputs": [],
      "stateMutability": "nonpayable",
      "type": "function"
    }
  ],
  "bytecode": "0x60806040523480156200001157600080fd5b506200005d6040518060400160405280601981526020017f486579204920616d206120736d61727420636f6e7472616374000000000000008152506200006f60201b620003b21760201c565b60028054905060018190555062000203565b6200010f816040516024016200008691906200017c565b6040516020818303038152906040527f41304fac000000000000000000000000000000000000000000000000000000007bffffffffffffffffffffffffffffffffffffffffffffffffffffffff19166020820180517bffffffffffffffffffffffffffffffffffffffffffffffffffffffff83818316178352505050506200011260201b60201c565b50565b60008151905060006a636f6e736f6c652e6c6f679050602083016000808483855afa5050505050565b60006200014882620001a0565b620001548185620001ab565b935062000166818560208601620001bc565b6200017181620001f2565b840191505092915050565b600060208201905081810360008301526200019881846200013b565b905092915050565b600081519050919050565b600082825260208201905092915050565b60005b83811015620001dc578082015181840152602081019050620001bf565b83811115620001ec576000848401525b50505050565b6000601f19601f8301169050919050565b610bf780620002136000396000f3fe608060405234801561001057600080fd5b50600436106100415760003560e01c8063449d46c0146100465780639a2cdc0814610062578063bd43a90814610080575b600080fd5b610060600480360381019061005b91906106ba565b61009e565b005b61006a610216565b604051610077919061093b565b60405180910390f35b610088610261565b6040516100959190610882565b60405180910390f35b60016000808282546100b09190610a1d565b92505081905550600260405180606001604052803373ffffffffffffffffffffffffffffffffffffffff16815260200183815260200142815250908060018154018082558091505060019003906000526020600020906003020160009091909190915060008201518160000160006101000a81548173ffffffffffffffffffffffffffffffffffffffff021916908373ffffffffffffffffffffffffffffffffffffffff16021790555060208201518160010190805190602001906101769291906105af565b506040820151816002015550503373ffffffffffffffffffffffffffffffffffffffff167fda01269cce08d780a2a4aa49d71774e3b7f47846c090e2cafaf1a70ea39959a082426040516101cb92919061090b565b60405180910390a26102136040518060400160405280601481526020017f2573206861732077617665642077697468202573000000000000000000000000815250338361044b565b50565b60006102596040518060400160405280601b81526020017f57652068617665206120746f74616c206f6620256420776176657300000000008152506000546104ea565b600054905090565b60606002805480602002602001604051908101604052809291908181526020016000905b828210156103a957838290600052602060002090600302016040518060600160405290816000820160009054906101000a900473ffffffffffffffffffffffffffffffffffffffff1673ffffffffffffffffffffffffffffffffffffffff1673ffffffffffffffffffffffffffffffffffffffff16815260200160018201805461030e90610af1565b80601f016020809104026020016040519081016040528092919081815260200182805461033a90610af1565b80156103875780601f1061035c57610100808354040283529160200191610387565b820191906000526020600020905b81548152906001019060200180831161036a57829003601f168201915b5050505050815260200160028201548152505081526020019060010190610285565b50505050905090565b610448816040516024016103c691906108a4565b6040516020818303038152906040527f41304fac000000000000000000000000000000000000000000000000000000007bffffffffffffffffffffffffffffffffffffffffffffffffffffffff19166020820180517bffffffffffffffffffffffffffffffffffffffffffffffffffffffff8381831617835250505050610586565b50565b6104e5838383604051602401610463939291906108c6565b6040516020818303038152906040527fe0e9ad4f000000000000000000000000000000000000000000000000000000007bffffffffffffffffffffffffffffffffffffffffffffffffffffffff19166020820180517bffffffffffffffffffffffffffffffffffffffffffffffffffffffff8381831617835250505050610586565b505050565b610582828260405160240161050092919061090b565b6040516020818303038152906040527f9710a9d0000000000000000000000000000000000000000000000000000000007bffffffffffffffffffffffffffffffffffffffffffffffffffffffff19166020820180517bffffffffffffffffffffffffffffffffffffffffffffffffffffffff8381831617835250505050610586565b5050565b60008151905060006a636f6e736f6c652e6c6f679050602083016000808483855afa5050505050565b8280546105bb90610af1565b90600052602060002090601f0160209004810192826105dd5760008555610624565b82601f106105f657805160ff1916838001178555610624565b82800160010185558215610624579182015b82811115610623578251825591602001919060010190610608565b5b5090506106319190610635565b5090565b5b8082111561064e576000816000905550600101610636565b5090565b600061066561066084610987565b610956565b90508281526020810184848401111561067d57600080fd5b610688848285610aaf565b509392505050565b600082601f8301126106a157600080fd5b81356106b1848260208601610652565b91505092915050565b6000602082840312156106cc57600080fd5b600082013567ffffffffffffffff8111156106e657600080fd5b6106f284828501610690565b91505092915050565b60006107078383610814565b905092915050565b61071881610a73565b82525050565b61072781610a73565b82525050565b6000610738826109c7565b61074281856109ea565b935083602082028501610754856109b7565b8060005b85811015610790578484038952815161077185826106fb565b945061077c836109dd565b925060208a01995050600181019050610758565b50829750879550505050505092915050565b60006107ad826109d2565b6107b781856109fb565b93506107c7818560208601610abe565b6107d081610bb0565b840191505092915050565b60006107e6826109d2565b6107f08185610a0c565b9350610800818560208601610abe565b61080981610bb0565b840191505092915050565b600060608301600083015161082c600086018261070f565b506020830151848203602086015261084482826107a2565b91505060408301516108596040860182610864565b508091505092915050565b61086d81610aa5565b82525050565b61087c81610aa5565b82525050565b6000602082019050818103600083015261089c818461072d565b905092915050565b600060208201905081810360008301526108be81846107db565b905092915050565b600060608201905081810360008301526108e081866107db565b90506108ef602083018561071e565b818103604083015261090181846107db565b9050949350505050565b6000604082019050818103600083015261092581856107db565b90506109346020830184610873565b9392505050565b60006020820190506109506000830184610873565b92915050565b6000604051905081810181811067ffffffffffffffff8211171561097d5761097c610b81565b5b8060405250919050565b600067ffffffffffffffff8211156109a2576109a1610b81565b5b601f19601f8301169050602081019050919050565b6000819050602082019050919050565b600081519050919050565b600081519050919050565b6000602082019050919050565b600082825260208201905092915050565b600082825260208201905092915050565b600082825260208201905092915050565b6000610a2882610aa5565b9150610a3383610aa5565b9250827fffffffffffffffffffffffffffffffffffffffffffffffffffffffffffffffff03821115610a6857610a67610b23565b5b828201905092915050565b6000610a7e82610a85565b9050919050565b600073ffffffffffffffffffffffffffffffffffffffff82169050919050565b6000819050919050565b82818337600083830152505050565b60005b83811015610adc578082015181840152602081019050610ac1565b83811115610aeb576000848401525b50505050565b60006002820490506001821680610b0957607f821691505b60208210811415610b1d57610b1c610b52565b5b50919050565b7f4e487b7100000000000000000000000000000000000000000000000000000000600052601160045260246000fd5b7f4e487b7100000000000000000000000000000000000000000000000000000000600052602260045260246000fd5b7f4e487b7100000000000000000000000000000000000000000000000000000000600052604160045260246000fd5b6000601f19601f830116905091905056fea2646970667358221220e25536a1f03dbc74e7c5c42a5d4c8b48bf3e9147b5e0b988993d9fc01f937a5564736f6c63430008000033",
  "linkReferences": {},
  "deployedLinkReferences": {}
}